:020000040800F2
:10000000280800209101000851300008C11D000897
:100010004129000801050008013200080000000025
:100020000000000000000000000000003D3100085A
:10003000BD0500080000000055300008F931000837
:10004000AB010008AB010008AB010008AB010008E0
:10005000AB010008AB010008AB010008AB010008D0
:10006000AB010008AB010008AB010008AB010008C0
:10007000AB010008AB010008AB010008AB010008B0
:10008000AB010008AB010008AB010008AB010008A0
:10009000AB010008AB010008AB010008AB01000890
:1000A000AB010008AB010008AB010008AB01000880
:1000B000AB010008AB010008AB010008AB01000870
:1000C000AB010008AB010008AB010008AB01000860
:1000D000AB010008AB010008AB010008AB01000850
:1000E000AB010008AB010008AB01000800F002F80A
:1000F00000F03FF80AA090E8000C82448344AAF183
:100100000107DA4501D100F034F8AFF2090EBAE880
:100110000F0013F0010F18BFFB1A43F0010318473B
:100120002C4E00004C4E0000103A24BF78C878C115
:10013000FAD8520724BF30C830C144BF04680C60ED
:10014000704700000023002400250026103A28BF35
:1001500078C1FBD8520728BF30C148BF0B60704739
:10016000642900F07D80002070471FB51FBD10B5C9
:1001700010BD00F08AF91146FFF7F7FF03F0D2FA3D
:1001800000F0A8F903B4FFF7F2FF03BC00F0B0F9E8
:100190000948804709480047FEE7FEE7FEE7FEE71B
:1001A000FEE7FEE7FEE7FEE7FEE7FEE70448054957
:1001B000054A064B70470000FD310008ED000008BD
:1001C00028020020280800202804002028040020FD
:1001D0000FB41CB5074B06AA7B44694600900598EE
:1001E00000F03BF90020694600F04AF91CBC5DF8BC
:1001F00014FB0000A50200002DE9F0410E46044664
:10020000002020622046E168884730B3252805D0C9
:10021000D4E901219047206A401CF2E7E1682046BA
:1002200000278847050018D0A5F14100192802D8F9
:1002300020354FF400673246294620462760FFF7F5
:100240008FFF40B1012804D0F61D26F007060836BE
:10025000D8E7361DD6E72846DAE7206ABDE8F08100
:100260002DE9F0410646002410687529314616A58F
:1002700010D0AFF30080002802DA404213A507E057
:1002800031688A0701D512A502E0490704D511A5F6
:10029000012401E0AFF3008000210A2206F12407C7
:1002A00009E0B0FBF2FCB0FBF2F302FB1C003030C3
:1002B00078541846491C0028F3D123462A46304674
:1002C000BDE8F04100F06BB8000000002D00000018
:1002D0002B0000002000000010B5431C02E010F8C5
:1002E000011B71B18107FAD14FF0013202C88C1A9B
:1002F0008C4314EAC211F9D0C01A0A0603D0C01EFA
:1003000010BDC01A10BD0A0401D0801E10BD090224
:10031000FCD0401E10BD00004FF0013C50F8042BF3
:1003200051F8043B9A4221D1A2EB0C03934313EA08
:10033000CC1317D150F8042B51F8043B9A4215D135
:10034000A2EB0C03934313EACC130BD150F8042B0C
:1003500051F8043B9A4209D1A2EB0C03934313EAF0
:10036000CC13DBD04FF00000704700BFD01A01BAA9
:10037000B1FA81F101F0180122FA01F0CB40DBB2B1
:10038000C0B2C01AC1F120012CFA01F3D11A914375
:1003900011EAC311E6D170477047704770472DE9E5
:1003A000F0470D4699469246044600F1240801683C
:1003B000880604D5E06921F01001216000E00120E9
:1003C000A84201DD471B00E00027A1697A1902EB72
:1003D0000900081AA0612078C00602D42046AFF3B5
:1003E0000080002608E0D4E901211AF806009047B1
:1003F000206A401C761C20624E45F4DB2078C00643
:100400000AD52046AFF3008006E0D4E90121302070
:100410009047206A401C2062381EA7F10107F4DCD7
:1004200007E0D4E9012118F805009047206A401C34
:100430002062281EA5F10105F3DC2046AFF3008001
:100440002078000602D50220BDE8F0870120FBE7F6
:1004500001694A1C02610878704700B58FB0CDE988
:1004600001310021059105497944CDE90310114678
:100470006846FFF7C1FE0FB000BD0000E5FFFFFFBB
:100480000A6802F8010B0A607047754600F02CF804
:10049000AE4605006946534620F00700854618B071
:1004A00020B5FFF783FEBDE820404FF000064FF077
:1004B00000074FF000084FF0000BAC46ACE8C00955
:1004C000ACE8C009ACE8C009ACE8C00921F00701FC
:1004D0008D46704710B50446AFF300802046BDE856
:1004E0001040FFF74FBE000000487047100000208A
:1004F00001491820ABBEFEE726000200704700004D
:10050000FEE700002DE9F04784B040F60008C4F291
:1005100001088A4606464046102100224FF0000995
:1005200000F04EFB802040F2A81540EA4600C2F2DF
:1005300000058DF8090064240DF1090102AA28467E
:100540000123009401F024F90DF10B010DF10A02D1
:10055000284601238DF80B90009401F019F99DF8BD
:100560000A7040461021012200F02AFB404610216B
:10057000002227EA0A0700F023FB7E2000EA46005B
:100580008DF80D000DF10D0103AA284601230094FA
:1005900001F0FEF80DF10F010DF10E0228460123C6
:1005A0008DF80F70009401F0F3F8404610210122FD
:1005B00000F006FB04B0BDE8F087000070470000C3
:1005C00070B542F20C060446C4F2020600F0FEFAD0
:1005D0003168C90718D13068800644BF20203060D8
:1005E0003068C00607D43069C00704D130684007BE
:1005F0005CBF002070BD3068C00623D40020316885
:1006000049072BD434E000BF002C47D00546601CBE
:100610000ED13068C007DED03068C0071CBF30681C
:100620005FEAC070D7D03068C007F2D1D3E700BF0F
:1006300000F0CCFA401BA04230D83068C007F7D198
:10064000C9E700BF40F20020C2F20000C16941F0DA
:100650000201C16110203168490709D540F200212B
:10066000C2F20001CA6940F0040042F00102CA610E
:100670003169C90702D13060012070BD40F200210C
:10068000C2F20001CA6942F00402CA61316921F074
:10069000010131613060012070BD00BF032070BDD9
:1006A00010B586B0044600F05FF901200590CDE951
:1006B00003040020029002A801A900F07DF800F0D8
:1006C000F3F806B010BD000070B5A2B301324FF0D0
:1006D000FF3303EB5203032BC2F3410C02D200237E
:1006E00016E000BF520822F0030E0022002300BFD4
:1006F000845A85188C526C888E187480AC880433A8
:10070000B480EC889E4502F10802F480F0D11144D7
:10071000BCF1000F08BF70BD30F81320BCF1010F11
:100720000A8008D000EB43004288BCF1020F4A80E7
:100730001CBF8088888070BD0088704770B51646E1
:100740000D46044600F010F96EB1701C4608023DDB
:1007500035F8022F01202146002300F0AFF8013EBA
:1007600004F10204F4D1BDE8704000F09DB800002F
:10077000B0B50C46054600F0F7F8E317012029460E
:10078000224600F09BF8BDE8B04000F08DB80000B4
:10079000B0B5044600F01AFA054640F20000C2F275
:1007A00000000078611C18BF044400BF00F00EFA7E
:1007B000401BA042FAD3B0BD2DE9F04381B040F216
:1007C0000026C2F20006327E012A03D1022001B0C7
:1007D000BDE8F083054601202C6830764CF250309D
:1007E0008846FFF7EDFE022C1CD100284ED10020D8
:1007F00042F21004F061C4F20204206840F00400E8
:100800002060206840F0400020604CF25030FFF73C
:10081000D7FE216821F0040121600021317601B06A
:10082000BDE8F08390BB4FF0FF30C8F80000D5E979
:10083000027007EB8020874228D242F21004C4F2F3
:1008400002044FF0000900BFC6F81C90206840F079
:10085000020020606760206840F0400020604CF299
:100860005030FFF7ADFE216821F00201216098B9F8
:10087000D5E9020107F5806700EB81208742E3D3C9
:1008800000200021317601B0BDE8F0830120002175
:10089000317601B0BDE8F083C8F8007000213176F0
:1008A00001B0BDE8F083000042F21001C4F2020181
:1008B000086840F0800200200A6070472DE9F04F80
:1008C00081B040F20029C2F20009924699F818203E
:1008D000012A03D1022001B0BDE8F08F804601203B
:1008E00089F818004CF250309B460E46FFF768FE20
:1008F000A0BB404642F21007B8F1020F18BF042017
:10090000C4F20207B8F1010F08BF404645424FF05C
:1009100000080024C4F12001C9F81C802AFA04F060
:100920000BFA01F13A680843B4F1200158BF2BFAE1
:1009300001F042F00101396026F8020B4CF2503010
:10094000FFF73EFE3968013521F0010248F1000150
:100950003A6018B9002904F11004DBD0002189F8AD
:10096000181001B0BDE8F08F42F20400C4F202009A
:10097000C16809065CBF0020704740F22311C4F231
:100980006751016048F6AB11CCF6EF510160C068C9
:10099000C0B2C009704700002DE9F04F82B00E6868
:1009A000002E00F0038141F20042C4F20102042350
:1009B00040F2004E904208BF03234FF6FF7CC4F282
:1009C000010E009300240123C1F2100C4FF0000A25
:1009D0004FF0000949E000BF012704F00C030F228B
:1009E0009A402BEA020207FA03F34FEA9A051A43E8
:1009F00046F82520D1F804B040F20C455FEACB223E
:100A0000DEF8082054BF22EA080242EA0802C4F2D3
:100A10000105CEF808202A685FEA8B2354BF22EA3A
:100A2000080242EA08022A605FEA8B33DEF80420FB
:100A300054BF22EA080242EA08025FEACB33CEF84A
:100A40000420DEF800204FF0010354BF22EA080220
:100A500042EA0802CEF800200E680AF1010A36FACE
:100A60000AF204F1040400F0A18003FA0AF816EA7D
:100A7000080FF1D04E68664512DC122E56D8DFE81A
:100A800006F0350B45495555555555555555555550
:100A90005555554D510000BFD1F80C9046E000BFB0
:100AA0004FF6FF72C1F2210296420FDC0022C1F222
:100AB000110296421AD00022C1F21202964215D0BB
:100AC0000022C1F22102964210D02FE00022C1F292
:100AD000220296420AD00022C1F23102964205D08B
:100AE0000022C1F23202964220D100BF8A684AB188
:100AF000012A14BFC0F81480C0F810804FF0080914
:100B000014E000BF4FF0040910E000BFCA6802F112
:100B100008090BE04FF0000908E000BFCA6802F1C5
:100B2000040903E0CA6802F10C0900BF2246064628
:100B3000BAF1080F24BF203A043637680F259540D4
:100B400027EA050509FA02F22A433260CA79D20679
:100B50007FF582AF41F21803C4F202031A68AEF5C2
:100B60007E7642F001021A601A6802F001020192D8
:100B7000019A2AF0030256F802B040F60002C4F2CD
:100B80000102904210D040F60042C4F201029042AD
:100B90003FF422AF41F20002C4F20102009F9042F2
:100BA00008BF022719E700BF002716E702B0BDE81B
:100BB000F08F00008068084018BF012070470000D7
:100BC000002A08BF090401617047000040F220209C
:100BD000C2F200000068704770B5B8B3044690F8E0
:100BE0003D0028B9002084F83C00204600F09AF926
:100BF000242084F83D002068016821F00101016093
:100C0000016841F400410160016821F40041016084
:100C100000F03EFB48F28041C0F21E0140F6001396
:100C2000D4F804E088424FF00001C0F23D0348F2DE
:100C3000A16C4FF0000238BF01219842C0F2010CB4
:100C400038BF0122E64538BF0A460AB1012070BD0F
:100C50004DF68361C4F21B31A0FB01122168950C93
:100C60004B684FF4967623F03F0343EA9243754373
:100C700044F6D3564B60C1F262060B6AA5FB0656DA
:100C8000B50923F03F03E64538BF950C6A1C1A43AB
:100C90000A62CA6948F2A0664CF6FF73C0F2010608
:100CA000B64522EA03020BD801384FEA4E03B0FBE7
:100CB000F3F001306FF31F30042898BF04201EE0CA
:100CC000A368013863B119230EFB03F3B0FBF3F003
:100CD00001306FF31F3078B100F5804008E000BFAD
:100CE0000EEB4E03B0FBF3F001306FF31F3028B171
:100CF00000F5004003E000BF012000E001201043A8
:100D0000C8610868D4E9072320F0C00010431843E5
:100D10000860886848F2FF3204F10C0690434CCE1C
:100D200018431043A5698860C86820F0FF0030436D
:100D30002843C860086840F00100086000202021B6
:100D4000206484F83D10206384F83E0070BD0000EC
:100D50002DE9F04383B01E46174689460446FFF747
:100D600035FF94F83D10202920D10546206800BFAA
:100D70008169890716D5FFF729FF411B20681A29C9
:100D8000F6D381698907F3D500202021206384F8F8
:100D90003D1084F83E00216C41F02001216484F86C
:100DA0003C0003E094F83C10012903D1022003B079
:100DB000BDE8F083012184F83C100168C90703D124
:100DC000016841F001010160016840F2020821F46C
:100DD00000610160212184F83D10102184F83E104B
:100DE0000021216467626685618DC0F2010821855A
:100DF000A8F10211E162E16A0A9E11F5803F18BF75
:100E000001291DD1016841F48071016020464FF035
:100E1000011100223346009501F034F850B12068EA
:100E20000068C00544BF4FF400702064012003B087
:100E3000BDE8F0832069B0F5804F07D1FE2015E0B2
:100E40000829DFD0216B1229DCD0DFE7062000EA79
:100E5000D9102168F030086108F1060120463246B9
:100E60002B4601F0F9F80028E0D1FF20216800EAC4
:100E7000090008612046414632462B4601F0ECF855
:100E80000028D3D100200290206841690291806936
:100E90000290029806E000BF204631462A4600F044
:100EA00091FF18BB208D68B3204631462A4601F0D9
:100EB00043F9D8B9606A2168024612F8013B0B6118
:100EC0006262628D013A6285228D531E23854F69CD
:100ED0007F07E1D51B04DFD0437802300B616062ED
:100EE000608D01386085901E2085D5E7206C042830
:100EF0009CD12068016841F400710160012003B0B9
:100F0000BDE8F0832068016841F400710160202091
:100F100084F83D00002084F83E0084F83C0003B0D3
:100F2000BDE8F08310B586B045F200410068C4F218
:100F3000000100228842049202D006B010BD00BF1A
:100F400041F21804C4F20204206840F00800206056
:100F5000206800F0080001900198C0200290122043
:100F600003900320059001F5384002A9FFF714FD16
:100F7000606840F400106060606800F40010019048
:100F8000019806B010BD000040F2000040F22021A0
:100F9000C2F20000C2F2000100780A681044086042
:100FA0007047000080B542F20000C4F20200016800
:100FB00041F010010160032000F07AF8002000F0F9
:100FC00005F800F027F8002080BD000070B540F261
:100FD0000006C2F2000640F208013278C2F20001B7
:100FE0004FF47A730968B3FBF2F20446B1FBF2F1F5
:100FF000084600F035FD0F2C4FF0010508D838B930
:101000004FF0FF3021460022002500F025F87460E3
:10101000284670BD82B041F21800C4F20200016897
:10102000022241F001010160016801F0010101911A
:101030000199416841F080514160406800F0805062
:10104000009000980420C4F20100016862F31A6164
:10105000016002B07047000010B54EF60C5CCEF295
:10106000000CDCF80030C3F3022E8EF00704042CD1
:1010700028BF0424BEF103034FF0FF3E0EFA04F430
:1010800038BF0023A14399400EFA03F39A4311435A
:1010900000F00F0200F160430901043A03F56443D4
:1010A0006244002848BF02F10C03197010BD000013
:1010B0004EF60C51CEF200010A684FF6FF031A40BB
:1010C00060F30A2242F0806040F0FD7008607047D3
:1010D0002DE9F04381B0002800F0858042F200083D
:1010E000C4F202080446D8F800000D4600F00700DC
:1010F00088420CD2D8F8000020F007002843C8F836
:101100000000D8F8000000F00700A8426BD120686A
:1011100041F204098107C4F2020917D5410705D538
:10112000D9F8001041F4E061C9F80010010705D5B5
:10113000D9F8001041F46051C9F80010D9F8001036
:10114000A26821F0F0011143C9F80010C00741D195
:10115000D8F8000000F00700A8420CD9D8F8000029
:1011600020F007002843C8F80000D8F8000000F07D
:101170000700A84237D12068410707D5D9F80010E9
:10118000E26821F4E0611143C9F80010000708D5B6
:10119000D9F80000216920F4605040EAC100C9F884
:1011A0000000D9F8002002F00C00082841F20020CD
:1011B000C0F27A0050D144F6C053C2F38341C0F666
:1011C0000003595CD2033BD440F60010C0F23D004E
:1011D000484341E0606802280AD001282AD159F822
:1011E000041C890308D4012001B0BDE8F08300BFCE
:1011F00059F8041C8901F6D5D9F8001021F0030133
:101200000843C9F80000FFF7E1FC064641F28837C1
:10121000D9F80000616800F00C00B0EB810F97D0A6
:10122000FFF7D4FC801BB842F2D9032001B0BDE81F
:10123000F08300BF59F8041C8907D4D5DCE700BF50
:10124000D9F8002044F6BE53C2F34042C0F6000372
:101250009A5C4843B0FBF2F0D9F8001044F6A6526D
:10126000C1F30311C0F60002515C40F2080220FAFB
:1012700001F140F20400C2F200000068C2F2000274
:101280001160FFF7A3FE002001B0BDE8F08300006D
:1012900040F2080041F20401C2F20000C4F202016F
:1012A0000068096844F6B652C1F30221C0F6000294
:1012B000515CC840704700002DE9F04182B0002821
:1012C00068D00446007841F20006C007C4F2020666
:1012D00025D0706800F00C0004281BD0706800F066
:1012E0000C00082802D17068C00313D4606800287D
:1012F00000F06881B0F5A02F00F07C81B0F5803F50
:1013000000F07C81306820F480303060306820F458
:10131000802076E13068800301D56068D0B3207802
:10132000800718D5706810F00C0F07D0706800F0B7
:101330000C0008286ED17068C0036BD43068800739
:1013400002D52069012825D13068616920F0F800B4
:1013500040EAC1003060207800071FD420784007A1
:1013600032D4E56995B1706800F00C00082840F0AF
:101370008F80012D0ED07068216A00F480328A427D
:1013800008D1616A00F47010884203D1002002B0D5
:10139000BDE8F081012002B0BDE8F081A06900281D
:1013A00062D00020C4F242200121C0F88014FFF76F
:1013B0000DFC0546706A800700F18C80FFF706FC83
:1013C000401B0228F6D92AE1F06910F0805808D1B4
:1013D000F06940F08050F061F06900F080500090BA
:1013E000009847F20007C4F200073868C00529D406
:1013F000386840F480703860FFF7E8FB054600BFAE
:101400003868C0051ED4FFF7E1FB401B6428F7D9FC
:1014100005E100BF2069002840F20000C4F242202C
:1014200000F0828001210160FFF7D0FB054600BF7C
:10143000306880073FF588AFFFF7C8FB401B0228E4
:10144000F6D9ECE0E068002800F08080052800F084
:101450009780012800F09880306A20F00100306207
:10146000306A20F0040092E00020C4F24220002103
:10147000C0F88014FFF7AAFB054600BF706A80071A
:101480007FF56CAFFFF7A2FB401B0228F6D9C6E040
:101490000027C4F2422700203866FFF797FB022D91
:1014A00005460BD13068800140F1BE80FFF78EFB0E
:1014B000401B02284FF00300F4D968E73068800130
:1014C0007FF564AFFFF782FB401B02284FF003005B
:1014D000F4D95CE740F20800C2F20000006844F66C
:1014E000D351C1F26201A0FB0101480A019000BF83
:1014F00000BF0198411E002801913FF42FAF00BFAB
:101500000198411E002801913FF428AF00BF0198C7
:10151000411E002801913FF421AF00BF0198411EF8
:1015200000280191E4D119E700210160FFF74EFB8B
:10153000054600BF306880077FF50DAFFFF746FB1B
:10154000401B02284FF00300F4D920E7306A20F056
:1015500001003062306A20F004003062FFF736FB91
:10156000054641F2883700BF306A800720D5FFF773
:101570002DFB401BB8424FF00300F5D907E700BF31
:10158000306A40F004003062306A40F0010030629E
:10159000FFF71CFB054641F2883700BF306A800721
:1015A00006D4FFF713FB401BB842F7D937E000BF62
:1015B000B8F1000F7FF4D5AEF06920F08050F061F3
:1015C000CFE600BF306820F480303060306820F40F
:1015D00080203060FFF7FAFA054600BF30688003CC
:1015E0007FF59DAEFFF7F2FA401B64284FF0030031
:1015F000F4D9CCE6306840F480203060306840F4A4
:1016000080303060FFF7E2FA054600BF30688003A3
:101610003FF585AEFFF7DAFA401B6428F6D90320C0
:1016200002B0BDE8F08100BF206AB0F5803F05D16F
:101630007168A26821F40031114371607168626AB7
:1016400021F4741111430843706001203866FFF7DC
:10165000BDFA0446306880013FF598AEFFF7B6FA50
:10166000001B02284FF00300F4D990E670B538B1A2
:101670000446406A30B10020206104F1140007E004
:10168000012070BD6068B0F5827F03D004F11C00BA
:10169000002101600026A66294F8510020B920467E
:1016A00084F8506000F038F8022084F8510094E883
:1016B000071001F48271036802F4044223F040032E
:1016C0000360236911440CF40062114403F0020228
:1016D0006369114403F00102A369E569114403F44D
:1016E0000072114405F03802256A114405F08002A9
:1016F000A56A114305F4005211430160042101EA77
:1017000013414160C16921F40061C1610120666536
:1017100084F85100304670BD70B586B040F60004C4
:10172000C4F20104006804F52051002688420496A2
:1017300002D006B070BD00BF41F21800C4F2020032
:10174000016802AD41F480510160016801F48051EB
:1017500001910199016841F0040101600068294686
:1017600000F0040001900198A02002900220039054
:10177000032005902046FFF70FF94020CDE902062F
:10178000204629460496FFF707F906B070BD000011
:101790002DE9F04381B0044690F85000012803D1B0
:1017A000022001B0BDE8F08301201E4615460F4619
:1017B00084F85000FFF70AFA94F851108146012985
:1017C00012D06068B0F5827F40F0A480A068002845
:1017D0004FF0020008BF042906D0002184F8501001
:1017E00001B0BDE8F08300BF002F4FF0010018BF2B
:1017F000002DF2D0002EF0D094F8510000210428E2
:101800001CBF052084F851006165A563E687A687A3
:101810002763E6862068A68621646164016849061C
:1018200003D4016841F0400101606168731EE26801
:10183000B1FA81F1B3FA83F3DDF8208049095B093D
:10184000B2F5006F41EA03016CD131B137F8021BE8
:10185000C1602763E08E0138E086012518F10100A0
:1018600031D101E0FFF7B2F9E08E18B9E08F00281E
:1018700000F0C0802068816889070CD5E18E51B1E5
:10188000012D08D1216B002531F8022BC2602163A4
:10189000E18E0139E1868168C907E3D0E18F002933
:1018A000E0D0C068A16B012521F8020BA163E08F95
:1018B0000138E087D6E700BFFFF788F9A0EB090001
:1018C000404580F0AB80E08E18B9E08F002800F032
:1018D00091802068816889070CD5E18E51B1012D76
:1018E00008D1216B002531F8022BC2602163E18E03
:1018F0000139E1868168C907DED0E18F0029DBD09C
:10190000C068A16B012521F8020BA163E08F0138AB
:10191000E087D1E70220002184F8501001B0BDE833
:10192000F08300BF39B139780173206B0130206337
:10193000E08E0138E086012518F1010032D101E086
:10194000FFF744F9E08E10B9E08F002852D02068EC
:10195000816889070ED5E18E61B1012D0AD1216B15
:10196000002509780173216B206801312163E18E24
:101970000139E1868168C907E2D0E18F0029DFD013
:10198000C068A16B01250870A06B0130A063E08FD7
:101990000138E087D4E700BFFFF718F9A0EB090092
:1019A00040453BD2E08E08B9E08F18B320688168CB
:1019B00089070ED5E18E61B1012D0AD1216B002579
:1019C00009780173216B206801312163E18E0139AF
:1019D000E1868168C907DFD0E18F0029DCD0C068CB
:1019E000A16B01250870A06B0130A063E08F013866
:1019F000E087D1E72046802142464B4601F02CFB90
:101A0000B0B1606D40F0200060652020606501206D
:101A1000002184F8501001B0BDE8F083012084F863
:101A200051000320002184F8501001B0BDE8F0837C
:101A3000A06838B9002000902068C16800918068D3
:101A400000900098606D00284FF0010004BF84F8FA
:101A500051000020002184F8501001B0BDE8F0834F
:101A6000411E0020B0EB116F1CBF012070474EF2E9
:101A70001002CEF2000251604EF62351CEF2000168
:101A8000F0230B70072190601160704710B590F83B
:101A90003C20012A4FF0020233D080F83D2002683A
:101AA000D2F804E0D2F808C00C682EF0700323438B
:101AB00040F2FF74C4F20004A24253600ADCB2F1A7
:101AC000804F13D040F20043C4F200039A420DD07D
:101AD00011E000BF42F60043C4F201039A4205D070
:101AE00040F60003C4F200039A4204D149682CF086
:101AF0008003194391600121002280F83D1080F895
:101B00003C20104610BD0000002804BF0120704793
:101B100010B5044690F83D0028B9002084F83C0038
:101B2000204600F067F8022084F83D00206840F26B
:101B3000FF730268C4F2000342F6004C9842C4F2FC
:101B4000010C15DCB0F1804F1AD040F20041C4F214
:101B50000001884214D0984218DCB0F1804F1DD0AB
:101B600040F20041C4F20001884217D01AE000BFE1
:101B7000604505D040F60001C4F200018842EAD178
:101B8000A16822F070020A439842E6DD604505D064
:101B900040F60001C4F20001884203D1216922F419
:101BA00040720A43A36922F08001D4F804E0E2689D
:101BB000194360450160C262C0F828E002D1616942
:101BC000CCF8301001214161002084F8461084F8DF
:101BD0003E1084F83F1084F8401084F8411084F8D7
:101BE000421084F8431084F8441084F8451084F8B7
:101BF0003D1010BD81B00068B0F1804F02D001B03F
:101C0000704700BF41F21C00C4F20200016841F0BD
:101C100001010160006800F001000090009801B02F
:101C20007047000080B590F83C20012A4FF0020276
:101C300000F0C28080F83D20D0F800C04FF67772E7
:101C4000DCF8083023EA0202CCF808200B684F2B9E
:101C500028DC1F2B44DD202B45D0302B43D0402BDC
:101C600040F0AC80D1F804E0C968DCF82030DCF842
:101C7000202022F00102CCF82020DCF8182022F0ED
:101C8000F00242EA011123F00A0242EA0E02CCF805
:101C90001810CCF82020DCF8081041F0470121F0A2
:101CA000300180E06F2B27DDB3F5005F48D0B3F53E
:101CB000805F7AD0702B40F08180D1E901E3C96860
:101CC000DCF8082043EA0E0322F47F4243EA0121B4
:101CD0001143CCF80810DCF8081041F0770162E0FD
:101CE0000BB1102B6AD1DCF8081021F070011943F8
:101CF00041F0070157E000BF502B35D0602B5DD17C
:101D0000D1F804E0C968DCF82030DCF8202022F0AB
:101D10001002CCF82020DCF8182022F4704242EAAD
:101D2000013123F0A00242EA0E12CCF81810CCF8D0
:101D30002020DCF8081041F0670121F0100132E0AA
:101D4000D1E901E3C968DCF8082043EA0E0322F474
:101D50007F4243EA01211143CCF80810DCF8081057
:101D600041F480411FE000BFD1F804E0C968DCF80D
:101D70002030DCF8202022F00102CCF82020DCF812
:101D8000182022F0F00242EA011123F00A0242EA8E
:101D90000E02CCF81810CCF82020DCF8081041F026
:101DA000570121F02001CCF808100022012180F811
:101DB0003D10002180F83C10104680BD0122F5E75F
:101DC000FEE7000070B50368044653F8140F40079F
:101DD00011D40E46481C29D086BB00BF18684005A8
:101DE00027D4FEF7F3FE236853F8140F400739D5C4
:101DF00018684007F2D5002070BD00BF1868400782
:101E0000F9D41868400514D418684007F3D418684A
:101E100040050ED418684007EDD41868400508D472
:101E2000186840074FF0000048BF70BD18684005B3
:101E3000E4D56FF480601860042014E0154603E0D8
:101E400053F8140F4007D6D418684005F1D4FEF7B4
:101E5000BDFE401B2368B042F2D958694007EFD459
:101E6000202000E0202000212022216384F83D2052
:101E700084F83E10226C10432064012084F83C104A
:101E800070BD00002DE9F041054600681E4614466D
:101E900001F47F0201338FB242D0DDF81880B2F531
:101EA000803F40F0878040693840C01BB0FA80F026
:101EB0004009A04240F0C8804EB924E04069384053
:101EC000C01BB0FA80F04009A04240F0BD80FEF790
:101ED0007DFEA0EB08012868B142EFD94169394085
:101EE000C91BB1FA81F14909A142E7D19BE000BFCA
:101EF00040693840C01BB0FA80F04009A0424FF062
:101F0000000040F0A680FEF761FE28684169394074
:101F1000C91BB1FA81F14909A142E9D183E000BFAF
:101F2000B2F5803F24D100BF41693940C91BB1FAE5
:101F300081F14909A14240F0878041693940C91BBC
:101F4000B1FA81F14909A14240F07E8041693940EE
:101F5000C91BB1FA81F14909A14275D141693940E2
:101F6000C91BB1FA81F14909A142DDD06CE000BF83
:101F700081693940C91BB1FA81F14909A14263D194
:101F800081693940C91BB1FA81F14909A1425BD18C
:101F900081693940C91BB1FA81F14909A14253D184
:101FA00081693940C91BB1FA81F14909A142DFD0E9
:101FB0004AE000BF80693840C01BB0FA80F0400999
:101FC000A04241D146B923E080693840C01BB0FA35
:101FD00080F04009A0423BD1FEF7F8FDA0EB0801DC
:101FE0002868B142F0D981693940C91BB1FA81F141
:101FF0004909A142E8D116E080693840C01BB0FA17
:1020000080F04009A0424FF0000018BFBDE8F08109
:10201000FEF7DCFD286881693940C91BB1FA81F1FE
:102020004909A142E8D100202021286385F83D100C
:1020300085F83E00296C41F02001296485F83C00B8
:102040000120BDE8F08100BF0020BDE8F08100BFA5
:102050000020BDE8F0810000F0B581B004460068C2
:102060001D4643698FB203EA0701B94202D100203D
:1020700001B0F0BD41691646013201F4806125D0FE
:10208000002940D1CEB100BFFEF7A0FD411B206862
:10209000B14203D941693940B9424BD14169394014
:1020A000B942E4D041694905EED52CE04169394097
:1020B000B942DCD04169490525D4FEF787FD206887
:1020C00041693940B942F1D0202024E0D9B94169B1
:1020D0003940B942CBD04169490514D441693940EE
:1020E000B942C4D0416949050DD441693940B9426A
:1020F000BDD04169490506D441693940B942B6D0DD
:1021000041694905E3D5016841F4007101606FF44C
:1021100080614161042000212022216384F83D2058
:1021200084F83E10226C1043206484F83C10012097
:1021300001B0F0BD2020EEE770B50368044653F807
:10214000140F000611D40E46481C29D086BB00BFD0
:102150001868400527D4FEF739FD236853F8140F9B
:10216000000639D518680006F2D5002070BD00BF02
:1021700018680006F9D41868400514D418680006D9
:10218000F3D4186840050ED418680006EDD418681A
:10219000400508D4186800064FF0000048BF70BD25
:1021A00018684005E4D56FF480601860042014E0DE
:1021B000154603E053F8140F0006D6D418684005FE
:1021C000F1D4FEF703FD401B2368B042F2D95869F1
:1021D0000006EFD4202000E02020002120222163EF
:1021E00084F83D2084F83E10226C104320640120C6
:1021F00084F83C1070BD00002DE9F04184B040F639
:102200000005C4F2010504462846102100224FF0C3
:102210000008FEF7D5FC40F2A8161A20C2F200060C
:102220008DF80D0064270DF10D0103AA304601233E
:102230000097FFF7ADFA0DF10F010DF10E023046D8
:1022400001238DF80F800097FFF7A2FA284610218E
:102250000122FEF7B5FC42F29300208002AF0C2071
:10226000214602222346009700F084F910B104B001
:10227000BDE8F08120786178A278E378484050404A
:1022800021795840401A18BF0120400004B0BDE831
:10229000F0810000F0B583B040F60004C4F2010400
:1022A000204610210122FEF78BFC04F580600121FD
:1022B0000122FEF785FC2046102100220027FEF7B0
:1022C0007FFC40F2A8150220C2F200058DF80B0039
:1022D00064260DF10B010DF10A0228460123009638
:1022E000FFF756FA0F208DF80B000DF10B010DF1E1
:1022F0000A02284601230096FFF74AFA20461021D9
:102300000122FEF75DFC204610210022FEF758FC5A
:1023100054208DF80B000DF10B010DF10A02284637
:1023200001230096FFF734FA8D208DF80B000DF194
:102330000B010DF10A02284601230096FFF728FA47
:10234000204610210122FEF73BFC204610210022EE
:10235000FEF736FC56208DF80B000DF10B010DF148
:102360000A02284601230096FFF712FA3E208DF854
:102370000B000DF10B010DF10A0228460123009616
:10238000FFF706FA204610210122FEF719FC20462D
:1023900010210022FEF714FC5A208DF80B000DF1DD
:1023A0000B010DF10A02284601230096FFF7F0F910
:1023B0001E208DF80B000DF10B010DF10A022846CD
:1023C00001230096FFF7E4F9204610210122FEF7D1
:1023D000F7FB204610210022FEF7F2FB58208DF873
:1023E0000B000DF10B010DF10A02284601230096A6
:1023F000FFF7CEF90DF10B010DF10A02284601237A
:102400008DF80B700096FFF7C3F9204610210122CA
:10241000FEF7D6FB204610210022FEF7D1FB2A2032
:102420008DF80B000DF10B010DF10A022846012376
:102430000096FFF7ADF940208DF80B000DF10B0170
:102440000DF10A02284601230096FFF7A1F9204664
:1024500010210122FEF7B4FB204610210022FEF7D6
:10246000AFFB22208DF80B000DF10B010DF10A02DC
:10247000284601230096FFF78BF93D208DF80B00CD
:102480000DF10B010DF10A02284601230096FFF71A
:102490007FF9204610210122FEF792FB20461021F1
:1024A0000022FEF78DFBA8208DF80B000DF10B012B
:1024B0000DF10A02284601230096FFF769F90DF194
:1024C0000B010DF10A02284601238DF80B700096CE
:1024D000FFF75EF9204610210122FEF771FB142060
:1024E000032100F02DFE03B0F0BD00002DE9F04106
:1024F00084B040F60008C4F201080C460546404688
:1025000010210022FEF75CFB40F2A8171A20C2F24D
:1025100000078DF80D0064260DF10D0103AA384661
:1025200001230096FFF734F907208DF80F000DF115
:102530000F010DF10E02384601230096FFF728F92E
:10254000404610210122FEF73BFB02AF0C20214642
:10255000012223462570009700F00CF802991029FB
:10256000014618BF0221002818BF0221084604B006
:10257000BDE8F0812DE9F04F87B017460C2888465A
:102580000293049006D00E2808D111200590122045
:1025900007E000BF31200590772002E00120059080
:1025A000002040F60006C4F20106039000F1800509
:1025B0003046102100224FF00009FEF701FB40F2E7
:1025C000A81A0420C2F2000A8DF81B0064240DF141
:1025D0001B010DF11A02504601230094FFF7D8F8B1
:1025E0000DF11B010DF11A02504601238DF81B500D
:1025F0000094FFF7CDF8304610210122FEF7E0FAF3
:1026000004208021FDF77EFF0A20802100F098FD44
:10261000304610210022FEF7D3FA02208DF81B006D
:102620000DF11B010DF11A02504601230094FFF732
:10263000AFF80DF11B010DF11A02504601238DF880
:102640001B900094FFF7A4F8304610210122FEF7FA
:10265000B7FA67B340F2A81AA8F10105C2F2000A5E
:102660000DF11B090DF11A0815F801BF30461021B4
:1026700000226424FEF7A4FA12208DF81B005046B5
:102680004946424601230094FFF782F864245046ED
:102690004946424601238DF81BB00094FFF778F8B5
:1026A000304610210122FEF78BFA013FDCD1304683
:1026B00010210022FEF784FA40F2A8170220C2F28D
:1026C00000078DF81B000DF11B010DF11A023846B1
:1026D00001230094FFF75CF8049D0DF11B010DF13F
:1026E0001A02384601238DF81B500094FFF750F86A
:1026F000304610210122FEF763FA0C2D03D10D2084
:10270000802100F01DFD4FF6300540F2A819CFF6EC
:10271000FF754FF088084FF0640AC2F200090DF10E
:102720001B0B0DF11A0400BF304610210022FEF7EA
:1027300047FA48465946224601238DF81B80CDF8BA
:1027400000A0FFF725F800208DF81B0048465946E9
:1027500022460123CDF800A0FFF71AF89DF81A7061
:10276000304610210122FEF72BFA013538D20598A8
:102770003842D9D00D208021FDF7C4FE304610210B
:1027800000224FF00008FEF71BFA40F2A8148C203C
:10279000C2F200048DF81B0064250DF11B010DF140
:1027A0001A02204601230095FEF7F2FF0DF11B01EE
:1027B0000DF11A02204601238DF81B800095FEF7CB
:1027C000E7FF9DF81A40304610210122FEF7F8F984
:1027D00014F01B0F0ED00225284607B0BDE8F08F7D
:1027E0000D208021FDF78EFE0225284607B0BDE8AA
:1027F000F08F00BF0398049938400C2900F00105C0
:10280000EAD130461021002210244FF00009FEF7D3
:10281000D7F940F2A8189420C2F200088DF81B00E6
:102820004FF0640A0DF11B010DF11A02404601231D
:10283000CDF800A0FEF7ACFF0DF11B010DF11A025F
:10284000404601238DF81B90CDF800A0FEF7A0FFB5
:102850009DF81A70304610210122FEF7B1F930467A
:1028600010210022FEF7ACF998208DF81B000DF125
:102870001B010DF11A0240460123CDF800A0FEF71E
:1028800087FF0DF11B010DF11A02404601238DF85F
:102890001B90CDF800A0FEF77BFF9DF81A80304614
:1028A00010210122FEF78CF918F0070040EAC7005A
:1028B000A0F1080008BFF800102F38BF3C46002FD9
:1028C000109908BF0124002C086085D0029840F2BE
:1028D000A81BA0F10108C2F2000B0DF11B074FF07D
:1028E000640A0DF11A090595304610210022FEF701
:1028F00067F992208DF81B00584639464A46012355
:10290000CDF800A0FEF744FF00208DF81B005846CC
:1029100039464A460123CDF800A0FEF739FF9DF85D
:102920001A50304610210122FEF74AF9013C08F8FE
:10293000015FD9D1059D284607B0BDE8F08F0000A2
:10294000FEE700002DE9F04F83B040F270044EF630
:102950000006C2F20004002700200021C0F6010694
:10296000278000F085FE0FF2546000F0AFFE0120DA
:1029700000214FF0010900F07BFE0FF25C6000F0D7
:10298000A5FE44F6E76A44F6166844F6FA6BC0F60C
:10299000000AC0F60008C0F6000BC4F81C9062E004
:1029A000A07840F2EC01226AC2F2000194F82430CF
:1029B0000D180A50002000212B7100F059FE44F63A
:1029C000FE50C0F6000000F081FE0120002100F062
:1029D0004FFE44F6D050C0F6000000F077FE40F6FF
:1029E0000045C4F2010528464FF400610122FEF7BC
:1029F000E7F86420FDF7CCFE28464FF40061002282
:102A0000FEF7DEF84FF4FA70FDF7C2FEA07805304D
:102A1000A0703046FDF744FE6420FDF7B9FEA278B1
:102A20004EF6020040F2EC01C0F60100C2F20001D5
:102A3000FDF784FE6420FDF7ABFEA1783046FDF77C
:102A400097FE6420FDF7A4FE00F05CFD04F1110088
:102A5000677007702078042828BF84F80090E06928
:102A6000012840F0A78200F0F7FC00F0CBFB4128E2
:102A7000207525D043282ED02078032835D0022871
:102A80004ED00128E7D10020002100F0F1FD44F6EE
:102A90003E60C0F6000000F019FE0120002100F0A9
:102AA000E7FD44F64F60C0F6000000F00FFE207D09
:102AB000422853D100F026FD84F8019052E000BF77
:102AC00000F020FD2078013020706420FDF760FECA
:102AD000207D4328D0D14FF4FA70E761FDF758FE0E
:102AE00000F010FD20780328C9D10020002100F05B
:102AF000BFFD0FF2FC4000F0E9FD0120002100F0D5
:102B0000B7FD44F6D250C0F6000000F0DFFD207D96
:102B1000422840F0AF8100F0F5FC03206070ADE189
:102B20000020002100F0A4FD44F64060C0F6000043
:102B300000F0CCFD0120002100F09AFD44F6776002
:102B4000C0F6000000F0C2FD207D422840F08480E5
:102B500000F0D8FC0220607082E000BF607801289D
:102B60007FF478AF00F04EFB20750020002100F0CC
:102B70007FFD404600F0AAFD0120002100F078FD15
:102B8000584600F0A3FD207D84F80E90432806D11E
:102B900064206770A773FDF7FBFD00F0B3FC3046BF
:102BA000FDF7CAFD04F15805A07026202946A4F8B7
:102BB0000370FFF79BFC0028D0D12846FFF71CFBD1
:102BC0000028CBD1A06D254645F8200F95F83C0094
:102BD00015F81E3C287140F2EC006A1DC2F200009C
:102BE000294601F0E9FF15F8101C15F80F0C012912
:102BF00008BF002811D100F085FC0020002100F062
:102C000037FD44F68D60C0F6000000F05FFD4FF424
:102C10007A70FDF7BDFD607C6770A17C012908BF5B
:102C2000002803D0012899D1BAE600BF00F06AFC61
:102C30000020002100F01CFD44F68C60C0F600006E
:102C400000F044FD4FF47A70FDF7A2FD607C6770E0
:102C500001287FF483AFA3E6607802287FF4FAAE00
:102C600000F0D0FA20750020002100F001FD44F6AC
:102C7000D560C0F6000000F029FD0120002100F021
:102C8000F7FC504600F022FD207D84F80790432891
:102C900006D164206770E771FDF77AFD00F032FC21
:102CA0003046FDF749FDC1B2A070A4F8037009B128
:102CB000C1B9D1E74FF47A70FDF76AFD00F022FC4C
:102CC0000020002100F0D4FC44F6C360C0F60000F0
:102CD00000F0FCFC4FF4FA60FDF75AFDA178677034
:102CE0000029B9D004F1580526202946FFF7FEFB3C
:102CF0000028B1D12846FFF77FFA0028ACD1A06D9B
:102D0000254645F8200F95F83C0015F81E3C287123
:102D100040F2EC006A1DC2F20000294601F04CFFAF
:102D200015F80F0C01281DD0A07C012894D1A278A1
:102D3000E178A2F1050C8C4559DDA2EB010EAEF154
:102D4000010313F003023FD040F2EC00C2F2000096
:102D500043185D79012A455401F101001CD1014657
:102D600032E000BF00F0CEFB0020002100F080FC2C
:102D700044F62C70C0F6000000F0A8FC01200121F0
:102D800000F076FC44F61F70C0F6000000F09EFCD8
:102D90004FF47A7069E000BF029001939D7940F290
:102DA000EC007346DDF808E0C2F2000000F80E50B7
:102DB0009E46022A01F1020302D1194604E000BF37
:102DC000019D0331ED79C554AEF10602032A0ED3FD
:102DD00040F2EC00C2F20000021F63465518D5F81D
:102DE0000900043B994202F104026860F6D184F8BC
:102DF00002C000F087FB0120012100F039FC44F6FD
:102E00001070C0F6000000F061FC40F60045C4F20E
:102E1000010528464FF400610122FDF7D1FE642030
:102E2000FDF7B6FC28464FF400610022FDF7C8FE0E
:102E30004FF47A70FDF7ACFC3046FDF731FC6420AE
:102E4000FDF7A6FCA2784EF6020040F2EC01C0F6B7
:102E50000100C2F20001FDF771FC6420FDF798FC4F
:102E6000A1783046FDF784FC6420FDF791FC601CDE
:102E7000EFE500BF607803287FF4ECAD00F0C2F905
:102E80004328207584F80B900DD164206770E77299
:102E9000E774C4F84370C4F84770C4F84A70FDF78B
:102EA00077FC00F02FFB0020002100F0E1FB56A092
:102EB00000F00CFC0120012100F0DAFB44F60B705D
:102EC000C0F6000000F002FC207DE17AA0F13002A3
:102ED000092A15D8012913D1E17C0929CAD804F19E
:102EE00043056854481CE0746420FDF751FC012040
:102EF000052100F0BDFB284600F0E8FBBAE700BF63
:102F00002A2808BF01294BD0442808BF0129B1D184
:102F1000A6F500600290FDF7C3FB0020002100F041
:102F2000A7FB3EA000F0D2FB0120002100F0A0FB97
:102F300040A000F0CBFB40F60045C4F20105284656
:102F40004FF400610122FDF73BFE6420FDF720FCF9
:102F500028464FF400610022FDF732FE04F14305DC
:102F60002846FDF7B9F9A071C1B20298FDF700FC3F
:102F7000A279A6F2FE702946FDF7E0FB4FF47A70C5
:102F8000FDF706FCC4F84A70C4F84770C4F84370F3
:102F9000E774C4F851706765C4F84D7064E700BF0A
:102FA000E774C4F84370C4F84770C4F84A7000F07E
:102FB000A9FA5FE703B0BDE8F08F00BF433A4D6167
:102FC0006E2068696E68206368696E682020202022
:102FD0002020202020000000413A4D656E75202001
:102FE0002020202020202020202020202020200001
:102FF0002D3E444F49204D4154204B4841552020FF
:1030000020202020000000004E686170206B657950
:10301000206D6F69202020202020000020202054D7
:1030200068616E6820636F6E67202020202020205A
:1030300020200000202020202020202020202020D0
:1030400020202020202020202020202020000000E0
:10305000FEE70000704700002DE9F04182B01E46F7
:1030600090460D460446FDF7B1FD301A00EB080707
:10307000FDF7ACFD40F20801C2F200010968C1F39E
:10308000CB317943019121688A682A40AA4227D12D
:10309000064618F101001FD0FDF798FD801BB842CD
:1030A00022D2019801990028A1F101010191216822
:1030B000896808BF074601EA0500A842ECD00FE086
:1030C00088682840A8420BD188682840A84207D1C8
:1030D00088682840A84203D188682840A842EFD0D9
:1030E000002002B0BDE8F081D4E900014268B1F5EA
:1030F000827F22F0E00242600AD1A168B1F5004F60
:1031000002D0B1F5806F03D1016821F04001016068
:10311000A16AB1F5005F07D1016821F40051016097
:10312000016841F400510160012084F85100002041
:1031300084F85000032002B0BDE8F0817047000021
:103140002DE9F04784B040F60008C4F201088A4631
:1031500006464046102100224FF00009FDF730FDE1
:10316000802040F2A81540EA4600C2F200058DF822
:10317000090064240DF1090102AA284601230094E4
:10318000FEF706FB0DF10B010DF10A0228460123A3
:103190008DF80B900094FEF7FBFA9DF80A704046FC
:1031A00010210122FDF70CFD40461021002247EAC4
:1031B0000A07FDF705FD7E2000EA46008DF80D00A8
:1031C0000DF10D0103AA284601230094FEF7E0FA51
:1031D0000DF10F010DF10E02284601238DF80F703D
:1031E0000094FEF7D5FA404610210122FDF7E8FCD5
:1031F00004B0BDE8F0870000FDF7C6BE70470000D0
:10320000FEE7000070B540F60005C4F2010505F5C3
:10321000806420464FF480510022FDF7D1FC0A2043
:10322000FDF7B6FA28464FF48071FDF7C3FC08B1EC
:10323000202607E028464FF48071FDF7BBFC0028EC
:10324000F8D0312628464FF40071FDF7B3FC38B9A9
:1032500028464FF40071FDF7ADFC0028F8D0322667
:1032600028464FF48061FDF7A5FC38B928464FF495
:103270008061FDF79FFC0028F8D0332628464FF4E4
:103280000061FDF797FC38B928464FF40061FDF75F
:1032900091FC0028F8D0412620464FF480510122AD
:1032A000FDF78EFC20464FF400510022FDF788FC0C
:1032B0000A20FDF76DFA28464FF48071FDF77AFC7D
:1032C00040B900BF28464FF48071FDF773FC002819
:1032D000F8D0342628464FF40071FDF76BFC38B95E
:1032E00028464FF40071FDF765FC0028F8D035261C
:1032F00028464FF48061FDF75DFC38B928464FF44D
:103300008061FDF757FC0028F8D0362628464FF498
:103310000061FDF74FFC38B928464FF40061FDF716
:1033200049FC0028F8D0422620464FF400510122E3
:10333000FDF746FC20464FF480410022FDF740FC9B
:103340000A20FDF725FA28464FF48071FDF732FC7C
:1033500040B900BF28464FF48071FDF72BFC0028D0
:10336000F8D0372628464FF40071FDF723FC38B912
:1033700028464FF40071FDF71DFC0028F8D03826D0
:1033800028464FF48061FDF715FC38B928464FF404
:103390008061FDF70FFC0028F8D0392628464FF44D
:1033A0000061FDF707FC38B928464FF40061FDF7CE
:1033B00001FC0028F8D0432620464FF4804101222A
:1033C000FDF7FEFB20464FF400410022FDF7F8FB1D
:1033D0000A20FDF7DDF928464FF48071FDF7EAFB7E
:1033E00040B900BF28464FF48071FDF7E3FB002889
:1033F000F8D02A2628464FF40071FDF7DBFB38B9D8
:1034000028464FF40071FDF7D5FB0028F8D0302690
:1034100028464FF48061FDF7CDFB38B928464FF4BC
:103420008061FDF7C7FB0028F8D0232628464FF41B
:103430000061FDF7BFFB38B928464FF40061FDF786
:10344000B9FB0028F8D0442620464FF40041012261
:10345000FDF7B6FB304670BD70B540F60044C4F2CF
:103460000104A4F5806528460421FDF7A3FB00288C
:1034700018BF70BD28460421FDF79CFB0028F9D039
:1034800040F27005C2F20005687A01281AD1204680
:103490004FF400610122FDF793FBC820FDF778F996
:1034A00020464FF400610022FDF78AFB04F580609E
:1034B0004FF400410022FDF783FB05F109000021D4
:1034C000017070BD0120687220464FF40061012236
:1034D000FDF776FBC820FDF75BF920464FF400614D
:1034E00000220026FDF76CFB04F580604FF40041DC
:1034F0000122FDF765FB05F10D00AE7200210170A0
:1035000070BD00002DE9F04184B048F68C0040F217
:103510005414C0F60C00C2F2000402904FF064088C
:1035200002AA20464E210423CDF80080FDF710FCAE
:1035300042F62D164627C0F60D1603AD20464E2145
:103540002A4604230396CDF80080FDF701FC013FD5
:10355000F4D104B0BDE8F08170B582B03220FDF73F
:1035600017F940F2541443F63C06C2F20004C0F6C8
:103570000C06642501AA20464E21042301960095DD
:10358000FDF7E6FB0520FDF703F901AA20464E21D1
:10359000042301960095FDF7DBFB0120FDF7F8F809
:1035A00001AA20464E21042301960095FDF7D0FB89
:1035B0000A20FDF7EDF842F62C00C0F60C00019051
:1035C00001AA20464E2104230095FDF7C1FB0A20E5
:1035D000FDF7DEF842F62C00C8F68C00019001AA37
:1035E00020464E2104230095FDF7B2FB0120FDF794
:1035F000CFF840F60C00C8F68C00019001AA2046D6
:103600004E2104230095FDF7A3FB0120FDF7C0F830
:1036100040F60C00C1F61C00019001AA20464E2184
:1036200004230095FDF794FB0120FDF7B1F801207C
:10363000FDF7AEF840F60C00C6F66C00019001AA4A
:1036400020464E2104230095FDF782FB0120FDF763
:103650009FF840F60C00CCF6CC00019001AA204661
:103660004E2104230095FDF773FB02B070BD0000EE
:10367000012805D0002808BF41F0800102E000BF0A
:1036800041F0C00180B582B021F00F00090100F1C6
:103690000C0208308DF8050001F10C008DF80600D1
:1036A00001F108008DF8070040F254108DF8042055
:1036B0004FF0640CC2F2000001AA4E210423CDF8A1
:1036C00000C0FDF745FB02B080BD0000F0B583B03F
:1036D000017821B340F25414461E6427C2F200045C
:1036E00002AD00BF21F00F00090100F10D02093009
:1036F0008DF8090001F10D008DF80A0001F10900B3
:103700008DF808208DF80B0020464E212A46042310
:103710000097FDF71DFBB17801360029E2D103B017
:10372000F0BD0000A0B0FDF73DFC00240120CDE974
:103730001B44CDE9194416901A904FF4E0104FF451
:10374000803102251F9016A8CDE91714CDE91D512F
:10375000FDF7B2FD20B1EFF3108072B6FEE700BFB7
:103760000F20CDE910054FF48060CDE9130410A8B7
:1037700002211294FDF7ACFC20B1EFF3108072B679
:10378000FEE700BF41F21800C4F20200016840F6F3
:10379000004441F0100101600168C4F2010401F02D
:1037A000100116911699016804F5806941F0200115
:1037B00001600168002201F020011691169901684C
:1037C0004FF4004541F0040101600168002701F059
:1037D000040116911699016841F008010160006822
:1037E0004FF4004100F00800169016984846FDF787
:1037F000E7F9A4F580663046132100224FF0130B41
:10380000FDF7DEF920464FF478410022FDF7D8F9A4
:10381000169516AD4FF001084FF0020A48462946AA
:10382000CDE91787CDF864A0FDF7B6F830462946F4
:10383000CDE916B8CDE9187AFDF7AEF80420CDE948
:103840001607304629461897FDF7A6F84FF478403A
:10385000CDE9160820462946CDE9187AFDF79CF8EF
:103860004FF4706016A981E8810130462946FDF7C2
:1038700093F840F25410A4F53841C2F2000048F227
:10388000A0624FF48043C0F2010280E88600C0E9E4
:103890000373C0E90577C0E90777FDF79DF928B103
:1038A000EFF3108072B600BFFEE700BF40F2A81031
:1038B00004F51051C2F200004FF482724FF400730D
:1038C000182580E886000A21CDF82490C0E9037706
:1038D000C0E90573C561C0E90877C0E90A71FDF761
:1038E000C5FE28B1EFF3108072B600BFFEE700BF3F
:1038F00040F2EC05C2F200054FF08042284600215C
:1039000040F8202F402240F6C3131991CDE917113A
:10391000CDE91011C0E90121C0E903318161FEF751
:10392000F3F828B1EFF3108072B600BFFEE700BFD6
:103930004FF480502035169016A92846FEF772F9EC
:1039400020B1EFF3108072B6FEE700BF10A9284641
:10395000FEF79CF820B1EFF3108072B6FEE700BFCF
:103960004EF20005C0F60105FFF7F6FDFEF792FCEA
:1039700040F27008C2F2000805F5806008F12501E8
:103980000522FCF7A1FE01F0A7F908F12F000A902B
:1039900044F63870C0F6000001684FF0000B0F913C
:1039A000416808F1680A0E9181680D91C16800694B
:1039B0000C910B9018E100BF01200121FFF758FE88
:1039C00044F6B267C0F60007504639460A22FCF7B3
:1039D000FFFB5046FFF77AFE4FF47A70FCF7D8FEF3
:1039E00001200121FFF744FE504639460922FCF729
:1039F000EFFB5046FFF76AFE4FF47A70FCF7C8FE03
:103A000001200121FFF734FE504639460822FCF719
:103A1000DFFB5046FFF75AFE4FF47A70FCF7B8FE12
:103A200001200121FFF724FE504639460722FCF70A
:103A3000CFFB5046FFF74AFE4FF47A70FCF7A8FE22
:103A400001200121FFF714FE504639460622FCF7FB
:103A5000BFFB5046FFF73AFE4FF47A70FCF798FE32
:103A600001200121FFF704FE504639460522FCF7EC
:103A7000AFFB5046FFF72AFE4FF47A70FCF788FE42
:103A800001200121FFF7F4FD504639460422FCF7DE
:103A90009FFB5046FFF71AFE4FF47A70FCF778FE52
:103AA00001200121FFF7E4FD504639460322FCF7CF
:103AB0008FFB5046FFF70AFE4FF47A70FCF768FE62
:103AC00001200121FFF7D4FD504639460222FCF7C0
:103AD0007FFB5046FFF7FAFD4FF47A70FCF758FE73
:103AE00001200121FFF7C4FD504639460122FCF7B1
:103AF0006FFB5046FFF7EAFD4FF47A70FCF748FE83
:103B000001200121FFF7B4FD504639460022FCF7A1
:103B10005FFB5046FFF7DAFD4FF47A70FCF738FE92
:103B200088F80AB000200021FFF7A2FD0E980F9937
:103B3000C8F86C000D98C8F870000C98C8F87400AC
:103B40000B98C8F87800404640F8681FFFF7BEFDA4
:103B500001200021FFF78CFD44F6D250C0F6000092
:103B6000FFF7B4FD30460421C8F836B0C8F833B0CA
:103B7000C8F82FB0C8F840B0C8F83DB0C8F839B0A0
:103B800088F813B0C8F847B0C8F84AB0C8F843B0CE
:103B9000A8F803B0A8F800B0C8F80FB0A8F80BB0A8
:103BA00088F80EB0A8F807B0C8F818B0FDF702F80A
:103BB00040B34EF20000C0F60100FCF7BDFD88F8EE
:103BC0000500C2B2DDE90710FCF77EFD0698FCF7A0
:103BD000B3FD88F80200C2B24EF60200C0F6010042
:103BE0002946FCF771FD00BFFFF70CFB2A2888F877
:103BF00014002BD1012040F2EC0988F80F00C2F22A
:103C00000009B8E130460421FCF7D4FF0028F9D0C0
:103C100098F80900012840F0CB8420464FF4006159
:103C20000122FCF7CDFFC820FCF7B2FD20464FF47F
:103C300000610022FCF7C4FF09984FF40041002204
:103C4000FCF7BEFF08F1090000F0CEBC98F80F00A9
:103C500040F2EC090128C2F2000900F08C8100203A
:103C60000021FFF705FD0E980F99C8F86C000D981C
:103C7000C8F870000C98C8F874000B98C8F8780061
:103C8000404640F8681FFFF721FD01200021FFF7A3
:103C9000EFFC44F6D250C0F60000FFF717FD3046A7
:103CA0000421C8F836B0C8F833B0C8F82FB0C8F847
:103CB00040B0C8F83DB0C8F839B088F813B0C8F8BB
:103CC00047B0C8F84AB0C8F843B0A8F803B0A8F89D
:103CD00000B0C8F80FB0A8F80BB088F80EB0A8F87C
:103CE00007B0C8F818B0FCF765FF002840F08283E1
:103CF00030460421FCF75EFF0028F9D098F809004F
:103D0000012840F0598320464FF400610122FCF75E
:103D100057FFC820FCF73CFD20464FF4006100220D
:103D2000FCF74EFF09984FF400410022FCF748FFD2
:103D300008F109005CE300BF01200021FFF798FCB7
:103D400044F62A65C0F60005504629460A22FCF7CB
:103D50003FFA5046FFF7BAFC4FF47A70FCF718FDB3
:103D600001200021FFF784FC504629460922FCF778
:103D70002FFA5046FFF7AAFC4FF47A70FCF708FDC3
:103D800001200021FFF774FC504629460822FCF769
:103D90001FFA5046FFF79AFC4FF47A70FCF7F8FCD4
:103DA00001200021FFF764FC504629460722FCF75A
:103DB0000FFA5046FFF78AFC4FF47A70FCF7E8FCE4
:103DC00001200021FFF754FC504629460622FCF74B
:103DD000FFF95046FFF77AFC4FF47A70FCF7D8FCF5
:103DE00001200021FFF744FC504629460522FCF73C
:103DF000EFF95046FFF76AFC4FF47A70FCF7C8FC05
:103E000001200021FFF734FC504629460422FCF72C
:103E1000DFF95046FFF75AFC4FF47A70FCF7B8FC14
:103E200001200021FFF724FC504629460322FCF71D
:103E3000CFF95046FFF74AFC4FF47A70FCF7A8FC24
:103E400001200021FFF714FC504629460222FCF70E
:103E5000BFF95046FFF73AFC4FF47A70FCF798FC34
:103E600001200021FFF704FC504629460122FCF7FF
:103E7000AFF95046FFF72AFC4FF47A70FCF788FC44
:103E800001200021FFF7F4FB504629460022FCF7F1
:103E90009FF95046FFF71AFC4FF47A70FCF778FC54
:103EA00000200021FFF7E4FB0F98C8F868000E9887
:103EB000C8F86C000D98C8F870000C98C8F8740029
:103EC0000B98C8F878005046FFF700FC012000214D
:103ED000FFF7CEFB44F6D250C0F60000FFF7F6FB2A
:103EE00030460421C8F836B0C8F833B0C8F82FB04F
:103EF000C8F840B0C8F83DB0C8F839B088F813B079
:103F0000C8F847B0C8F84AB0C8F843B0A8F803B03A
:103F1000A8F800B0C8F80FB0A8F80BB088F80EB039
:103F2000A8F807B0C8F818B0FCF744FE00285FD026
:103F30004EF20007C0F601073846FCF7FDFBBB1C3C
:103F400088F8050008F14D01C2B21846FCF7BCFB29
:103F500007F50060FCF7F0FB88F80200C2B24EF6ED
:103F60000200C0F601004946FCF7AEFB98F80F00CE
:103F700001287FF474AEFFF745F9432888F8140050
:103F80004FF000004FF0000108BF88F80FB0FFF7B6
:103F90006FFB44F66460C0F60000FFF797FB01205A
:103FA0000121FFF765FB44F60B70C0F60000FFF738
:103FB0008DFB98F81400A0F1300109293CD898F83D
:103FC0001310092900F2B4800A9F7854481C88F81D
:103FD00013006420FCF7DCFB01200521FFF748FB00
:103FE0003846FFF773FB98F80D000328BED1A4E014
:103FF00030460421FCF7DEFD0028F9D098F80900CE
:10400000012840F0CB8020464FF400610122FCF7EC
:10401000D7FDC820FCF7BCFB20464FF4006100220E
:10402000FCF7CEFD09984FF400410022FCF7C8FDD3
:1040300008F10900CEE000BF442825D02A2877D116
:1040400088F813B0C8F82FB0C8F833B0C8F836B045
:10405000FFF758FA00200021FFF70AFB44F66460DE
:10406000C0F60000FFF732FB01200121FFF700FB43
:1040700044F60B70C0F60000FFF728FB98F80D001F
:1040800003287FF473AF58E00A98FCF725F908F18C
:104090004D0507462846FCF71FF9874206D10A98C6
:1040A0002946FCF739F9002800F09880FFF72AFA32
:1040B00000200121FFF7DCFA0FF66420FFF706FB72
:1040C00001200021FFF7D4FA44F6D850C0F60000D2
:1040D000FFF7FCFA98F80D0088F813B0013088F863
:1040E0000D0040F2DC50C8F82FB0C8F833B0C8F863
:1040F00036B0FCF74DFBFFF705FA00200021FFF773
:10410000B7FA0FF62C20FFF7E1FA01200121FFF7A3
:10411000AFFA46F24B514046C3F6792140F8681F8A
:1041200080F804B0FFF7D2FA40F2EC09C2F20009BD
:1041300098F80D0003287FF419AF00200021FFF745
:1041400097FA0FF60C20FFF7C1FA01200021FFF7C4
:104150008FFA44F6D850C0F60000FFF7B7FAD8F847
:10416000180003283FF7E8AD20464FF40061012214
:10417000FCF726FD6420FCF70BFB20464FF40061A2
:104180000022FCF71DFD6420FCF702FBD8F81800A4
:10419000411C0328C8F81810E6DBCDE5012088F89B
:1041A000090020464FF400610122FCF709FDC820F8
:1041B000FCF7EEFA20464FF400610022FCF700FD08
:1041C00009984FF400410122FCF7FAFC08F10D00B8
:1041D00088F80AB080F800B0AAE600BFFFF792F9AD
:1041E00000200021FFF744FA0FF65410FFF76EFA93
:1041F00001200121FFF73CFA44F6D850C0F6000038
:10420000FFF764FA012088F8090020464FF40061A6
:10421000012288F813B0C8F82FB0C8F833B0C8F836
:1042200036B0FCF7CDFCC820FCF7B2FA20464FF4BC
:1042300000610022FCF7C4FC09984FF40041012200
:10424000FCF7BEFC4FF4FA6088F80AB088F80DB0AD
:10425000FCF79EFAFEF776FB00200021FFF708FA34
:104260000E980F99C8F86C000D98C8F870000C985B
:10427000C8F874000B98C8F87800404640F8681FEA
:10428000FFF724FA01200021FFF7F2F944F6D2509B
:10429000C0F60000FFF71AFA30460421C8F836B01D
:1042A000C8F833B0C8F82FB0C8F840B0C8F83DB06F
:1042B000C8F839B088F813B0C8F847B0C8F84AB0A1
:1042C000C8F843B0A8F803B0A8F800B0C8F80FB019
:1042D000A8F80BB088F80EB0A8F807B0C8F818B066
:1042E000FCF768FC40F2EC090028C2F200093FD15B
:1042F00030460421FCF75EFC0028F9D098F809004C
:10430000012817D120464FF400610122FCF758FC28
:10431000C820FCF73DFA20464FF400610022FCF76C
:104320004FFC09984FF400410022FCF749FC08F1CA
:1043300009001BE0012088F8090020464FF40061C5
:104340000122FCF73DFCC820FCF722FA20464FF47E
:1043500000610022FCF734FC09984FF4004101226F
:10436000FCF72EFC08F10D0088F80AB080F800B0C8
:104370004EF20007C0F601073846FCF7DDF9B91C1C
:1043800088F80500C2B208462946FCF79DF907F5F2
:104390000060FCF7D1F988F80200C2B24EF60200C4
:1043A000C0F601004946FCF78FF998F80D00032884
:1043B0007FF4DCADC1E600BF012088F8090020468B
:1043C0004FF400610122FCF7FBFBC820FCF7E0F989
:1043D00020464FF400610022FCF7F2FB09984FF4ED
:1043E00000410122FCF7ECFB08F10D0088F80AB04F
:1043F00080F800B04EF20007C0F601073846FCF71F
:104400009BF9BB1C88F8050008F14D01C2B21846A3
:1044100008930791FCF758F907F500600690FCF740
:104420008BF988F80200C2B24EF60200C0F6010015
:104430004946FCF749F908F1580726203946FEF7A6
:1044400055F800287FF4D0AB3846FDF7D5FE98B17B
:1044500098F8100040F2EC070128C2F2000700F0C3
:10446000D28098F81200012800F0BD8198F8110060
:1044700001287FF4B9ABF4E24FF4FA70FCF788F945
:1044800098F85C00D8F8581088F82E0098F80200C8
:10449000C8F82A10002869D098F803C08445D7D2FC
:1044A00098F82A9098F8252098F8281098F826303F
:1044B000029189EA020198F82770039198F82BE09D
:1044C00098F82C108EEA0302059179400092019130
:1044D00098F82D1098F82E5098F82920029B0491F6
:1044E0004B4002956A400399009D41EA05070199F6
:1044F0000F433B431A43D7B2002F18BF012700BF19
:10450000002F0CF1050373D040F2EC015FFA8CF23E
:10451000C2F20001895C894518D140F2EC01C2F277
:1045200000010A4451788E4510D19178059D8D4245
:104530000CD1D178049D8D4208D11179029D8D4214
:1045400000F0E2821179F4468D4205D04FF480717B
:1045500088F812B0A8F81010D9B281429C4688F8A9
:104560000330CDD388F8043072E700BF98F82500F7
:1045700098F82A10814217D198F8260098F82B1045
:10458000814211D198F8270098F82C1081420BD164
:1045900098F8280098F82D10814205D198F8290044
:1045A00098F82E10814227D0012088F811004FE79B
:1045B000012088F8090020464FF400610122FCF731
:1045C000FFFAC820FCF7E4F820464FF4006100220F
:1045D000FCF7F6FA09984FF400410122FCF7F0FAD3
:1045E00008F10D0088F80AB080F800B0FFF7E1BAD2
:1045F00088F80430A8F811B0012040F2EC0788F8E0
:104600001000C2F200076420FCF7C2F8FEF77AFF40
:1046100000200021FFF72CF80FF24450FFF756F866
:1046200020464FF400610122FCF7CAFAC820FCF7CB
:10463000AFF820464FF400610022FCF7C1FA099D53
:104640004FF4004128460122FCF7BAFA0120A8F8ED
:10465000090020464FF40061012288F80DB0FCF7F4
:10466000AFFAC820FCF794F820464FF4006100220E
:10467000FCF7A6FA28464FF400410122FCF7A0FA05
:104680004FF4FA6088F80AB088F80DB0FCF780F8AB
:10469000FEF738FFFEF756F900200021FEF7E8FF8D
:1046A0000E980F99C8F86C000D98C8F870000C9817
:1046B000C8F874000B98C8F87800404640F8681FA6
:1046C000FFF704F801200021FEF7D2FF44F6D25094
:1046D000C0F60000FEF7FAFF30460421C8F836B0F5
:1046E000C8F833B0C8F82FB0C8F840B0C8F83DB02B
:1046F000C8F839B088F813B0C8F847B0C8F84AB05D
:10470000C8F843B0A8F803B0A8F800B0C8F80FB0D4
:10471000A8F80BB088F80EB0A8F807B0C8F818B021
:10472000FCF748FA00283FD130460421FCF742FA52
:104730000028F9D098F80900012817D120464FF435
:1047400000610122FCF73CFAC820FCF721F8204662
:104750004FF400610022FCF733FA09984FF400414E
:104760000022FCF72DFA08F109001BE0012088F86F
:10477000090020464FF400610122FCF721FAC8200D
:10478000FCF706F820464FF400610022FCF718FA07
:1047900009984FF400410122FCF712FA08F10D00CC
:1047A00088F80AB080F800B04EF20000C0F60100B0
:1047B000FBF7C2FF88F80500C2B2DDE90710FBF77E
:1047C00083FF0698FBF7B8FF88F80200C2B24EF6E6
:1047D0000200C0F601003946FBF776FF98F8120098
:1047E00001287FF443AE6420FBF7D2FFFEF78AFE78
:1047F00000200021FEF73CFF44F6E950C0F600001F
:10480000FEF764FF01200021FEF732FFD7A0FEF77C
:104810005DFF012088F8090020464FF40061012265
:10482000FCF7CEF9C820FBF7B3FF20464FF4006138
:104830000022FCF7C5F909984FF400410122FCF76A
:10484000BFF998F8090088F80AB0012888F80DB077
:1048500000F09180FEF756FE00200021FEF708FFD1
:104860000E980F99C8F86C000D98C8F870000C9855
:10487000C8F874000B98C8F87800404640F8681FE4
:10488000FEF724FF01200021FEF7F2FE44F6D2508D
:10489000C0F60000FEF71AFF30460421C8F836B013
:1048A000C8F833B0C8F82FB0C8F840B0C8F83DB069
:1048B000C8F839B088F813B0C8F847B0C8F84AB09B
:1048C000C8F843B0A8F803B0A8F800B0C8F80FB013
:1048D000A8F80BB088F80EB0A8F807B0C8F818B060
:1048E000FCF768F9002840F09D8000BF30460421A5
:1048F000FCF760F90028F9D098F80900012873D175
:1049000020464FF400610122FCF75AF9C820FBF75A
:104910003FFF20464FF400610022FCF751F909984F
:104920004FF400410022FCF74BF908F1090077E051
:10493000012088F8090020464FF400610122FCF7AD
:104940003FF9C820FBF724FF20464FF40061002206
:10495000FCF736F909984FF400410122FCF730F9D1
:1049600008F10D0088F80AB080F800B098F8090046
:1049700001287FF46FAF00200021FEF779FE44F696
:10498000E950C0F60000FEF7A1FE01200021FEF76D
:104990006FFE7CA0FEF79AFE30460421FCF70AF970
:1049A0000028E3D130460421FCF704F90028F9D0AF
:1049B00098F809000128BBD120464FF4006101227C
:1049C000FCF7FEF8C820FBF7E3FE20464FF4006139
:1049D0000022FCF7F5F809984FF400410022FCF79B
:1049E000EFF808F10900BFE7012088F80900204628
:1049F0004FF400610122FCF7E3F8C820FBF7C8FE82
:104A000020464FF400610022FCF7DAF809984FF4D1
:104A100000410122FCF7D4F808F10D0088F80AB033
:104A200080F800B04EF20000C0F60100FBF784FEF3
:104A300088F80500C2B2DDE90710FBF745FE0698CD
:104A4000FBF77AFE88F80200C2B24EF60200C0F60A
:104A500001003946FBF738FE98F8110001287FF471
:104A6000C3A80A2088F80900FEF74CFD00200021A9
:104A7000FEF7FEFD49A0FEF729FE01200121FEF709
:104A8000F7FD49A0FEF722FE98F80A00013088F8E9
:104A90000A004FF47A70FBF77BFE98F80A0040F2A8
:104AA000EC050428C2F20005FFF43CA8FEF72AFD3D
:104AB00000200121FEF7DCFD44F6A060C0F60000F6
:104AC000FEF704FED8F8180003283EF775AF00BFC4
:104AD00020464FF400610122FCF772F86420FBF7D6
:104AE00057FE20464FF400610022FCF769F864206D
:104AF000FBF74EFED8F81800411C0328C8F8181020
:104B0000E6DBFEF759BF00BF012040F2EC0788F852
:104B1000043088F81200A8F810B0C2F2000762E66C
:104B20006D6174206B68617520736169000000001D
:104B30004E686170206D6174206B686175000000C3
:104B4000204D6174206B6861752064756E6700008C
:104B5000536169207175612033206C616E00000023
:104B6000546865204D617374657200002020202018
:104B70002020202020202020202020202020202035
:104B800020202000446F6E67206375612E2E2E203A
:104B900020202020202020202000000020205468F9
:104BA000652073616920200051756574206C61690E
:104BB00020746865202000002DE9F043002B57D0B9
:104BC00040F2700CC2F2000C9CF803609E4228BFB9
:104BD000BDE8F0834FF0000E4FF48078751D8CF81F
:104BE00004500F781478A74214D191F801905478AA
:104BF000A1450FD191F802909478A1450AD191F87E
:104C00000390D478A14505D191F804901479A14579
:104C100052D000BFF6B2845DA7421DD106444C7845
:104C20007778BC4218D18C78B778BC4207D1CC7861
:104C3000F778BC4203D10C793779BC4244D08C78E8
:104C4000B778BC4208D1CC78F778BC4204D10C7953
:104C50003679B44204D000BF8CF812E0ACF8108072
:104C6000ECB29C422E468CF80350B7D3BDE8F083DB
:104C700008781378984217D148785378984213D11E
:104C80008878937898420FD1C878D37898420BD11E
:104C900008791179884207D140F27000C2F2000011
:104CA00001210174BDE8F08340F27000C2F20000FF
:104CB00001214174BDE8F08300208CF8120001202E
:104CC000ACF81000BDE8F08301208CF81200002041
:104CD000ACF81000BDE8F083B0B50020002100243E
:104CE000FEF7C6FC44F63870C0F60000D0E900C2FA
:104CF000D0E90231006940F27005C2F20005C5E951
:104D00001D10284640F868CFC5E91B23FEF7DEFCDE
:104D100001200021FEF7ACFC44F6D250C0F60000A2
:104D2000FEF7D4FCC5F83640C5F83340C5F82F402F
:104D30002C64C5F83D40C5F83940EC74C5F84740CF
:104D4000C5F84A40C5F84340A5F803402C80C5F893
:104D50000F40A5F80B40AC73A5F80740AC61FEF717
:104D60007BFB4EF20004C0F601042046FBF7E4FC96
:104D7000A31C687105F14D01C2B21846FBF7A4FCF3
:104D800004F50060FBF7D8FC0346C2B240F2EC0128
:104D90004EF60200C2F20001C0F60100AB70BDE8A1
:104DA000B040FBF791BC00000000000000000102D1
:104DB00003040607080900000000010203040102C1
:104DC00002030405060708090A0B0C0D0E0F10104C
:104DD00020202020202020202020202020202020D3
:104DE00020202020202020200020205468652044FE
:104DF000756E67212020202020202020200054686C
:104E0000656D207468616E6820636F6E6721202075
:104E10002020202020005448454D20544845204D56
:104E20004F492020202020202000446F693A20256F
:104E300064206769617920202020202020002D3EF9
:104E40005448454D2054484520202020202000581B
:104E50004F412054484520424154204B49202020B6
:104E6000202020004E686170206D6174206B6861A5
:104E7000752020202020002D3E584F4120544845C9
:104E800020424154204B49202020200020546865B6
:104E900020646120746F6E207461692020202000DE
:104EA000536169207175612033206C616E20202070
:104EB0002000446F693A20256420676961792020C9
:104EC00020200020204B484F4E4720434F2054487D
:104ED0004520202000584F4120544845204241544D
:104EE000204B59202020004D4F49204E4841502052
:104EF0005448452E2E2E2E2020004D4F49204E483E
:104F00004150205448452E2E2E2E004B65793A00F4
:104F1000586F61207468616E6820636F6E67005817
:104F20006F61207468617420626169005468652053
:104F30006368756120636F00204D6F69207175652E
:104F4000742074686520202020202000704F000805
:104F5000000000201000000028010008804F000819
:104F600010000020180800004401000800000000A4
:104F700001000000100000000024F4000000000008
:04000005080000ED02
:00000001FF
